{
  "_format": "hh-sol-artifact-1",
  "contractName": "BlitzProtocol",
  "sourceName": "contracts/BlitzProtocol.sol",
  "abi": [
    {
      "inputs": [],
      "stateMutability": "nonpayable",
      "type": "constructor"
    },
    {
      "anonymous": false,
      "inputs": [
        {
          "indexed": true,
          "internalType": "address",
          "name": "creator",
          "type": "address"
        },
        {
          "indexed": false,
          "internalType": "string",
          "name": "protocolName",
          "type": "string"
        },
        {
          "indexed": false,
          "internalType": "uint256",
          "name": "timestamp",
          "type": "uint256"
        },
        {
          "indexed": false,
          "internalType": "address",
          "name": "protocolContractAddress",
          "type": "address"
        },
        {
          "indexed": false,
          "internalType": "string",
          "name": "_id",
          "type": "string"
        }
      ],
      "name": "BlitzCreated",
      "type": "event"
    },
    {
      "anonymous": false,
      "inputs": [
        {
          "indexed": true,
          "internalType": "address",
          "name": "creator",
          "type": "address"
        },
        {
          "indexed": false,
          "internalType": "string",
          "name": "protocolName",
          "type": "string"
        }
      ],
      "name": "BlitzDeactivated",
      "type": "event"
    },
    {
      "anonymous": false,
      "inputs": [
        {
          "indexed": true,
          "internalType": "address",
          "name": "previousOwner",
          "type": "address"
        },
        {
          "indexed": true,
          "internalType": "address",
          "name": "newOwner",
          "type": "address"
        }
      ],
      "name": "OwnershipTransferred",
      "type": "event"
    },
    {
      "inputs": [],
      "name": "blitzCreationFee",
      "outputs": [
        {
          "internalType": "uint256",
          "name": "",
          "type": "uint256"
        }
      ],
      "stateMutability": "view",
      "type": "function"
    },
    {
      "inputs": [
        {
          "internalType": "address",
          "name": "",
          "type": "address"
        }
      ],
      "name": "blitzes",
      "outputs": [
        {
          "internalType": "string",
          "name": "protocolName",
          "type": "string"
        },
        {
          "internalType": "uint256",
          "name": "timestamp",
          "type": "uint256"
        },
        {
          "internalType": "bool",
          "name": "isActive",
          "type": "bool"
        },
        {
          "internalType": "address",
          "name": "protocolContractAddress",
          "type": "address"
        },
        {
          "internalType": "string",
          "name": "_id",
          "type": "string"
        }
      ],
      "stateMutability": "view",
      "type": "function"
    },
    {
      "inputs": [
        {
          "internalType": "string",
          "name": "protocolName",
          "type": "string"
        },
        {
          "internalType": "address",
          "name": "protocolContractAddress",
          "type": "address"
        },
        {
          "internalType": "string",
          "name": "_id",
          "type": "string"
        }
      ],
      "name": "createBlitz",
      "outputs": [],
      "stateMutability": "payable",
      "type": "function"
    },
    {
      "inputs": [],
      "name": "deactivateBlitz",
      "outputs": [],
      "stateMutability": "nonpayable",
      "type": "function"
    },
    {
      "inputs": [
        {
          "internalType": "address",
          "name": "userAddress",
          "type": "address"
        }
      ],
      "name": "getBlitz",
      "outputs": [
        {
          "internalType": "string",
          "name": "_id",
          "type": "string"
        }
      ],
      "stateMutability": "view",
      "type": "function"
    },
    {
      "inputs": [],
      "name": "getBlitzCreationFee",
      "outputs": [
        {
          "internalType": "uint256",
          "name": "",
          "type": "uint256"
        }
      ],
      "stateMutability": "view",
      "type": "function"
    },
    {
      "inputs": [],
      "name": "getOwner",
      "outputs": [
        {
          "internalType": "address",
          "name": "",
          "type": "address"
        }
      ],
      "stateMutability": "view",
      "type": "function"
    },
    {
      "inputs": [],
      "name": "getTotalBlitzCount",
      "outputs": [
        {
          "internalType": "uint256",
          "name": "",
          "type": "uint256"
        }
      ],
      "stateMutability": "view",
      "type": "function"
    },
    {
      "inputs": [
        {
          "internalType": "address",
          "name": "user",
          "type": "address"
        }
      ],
      "name": "hasBlitz",
      "outputs": [
        {
          "internalType": "bool",
          "name": "",
          "type": "bool"
        }
      ],
      "stateMutability": "view",
      "type": "function"
    },
    {
      "inputs": [],
      "name": "owner",
      "outputs": [
        {
          "internalType": "address payable",
          "name": "",
          "type": "address"
        }
      ],
      "stateMutability": "view",
      "type": "function"
    },
    {
      "inputs": [
        {
          "internalType": "uint256",
          "name": "newFee",
          "type": "uint256"
        }
      ],
      "name": "setBlitzCreationFee",
      "outputs": [],
      "stateMutability": "nonpayable",
      "type": "function"
    },
    {
      "inputs": [],
      "name": "totalBlitzCount",
      "outputs": [
        {
          "internalType": "uint256",
          "name": "",
          "type": "uint256"
        }
      ],
      "stateMutability": "view",
      "type": "function"
    },
    {
      "inputs": [
        {
          "internalType": "address payable",
          "name": "newOwner",
          "type": "address"
        }
      ],
      "name": "transferOwnership",
      "outputs": [],
      "stateMutability": "nonpayable",
      "type": "function"
    }
  ],
  "bytecode": "0x6080604052662386f26fc1000060035534801561001b57600080fd5b5033600260006101000a81548173ffffffffffffffffffffffffffffffffffffffff021916908373ffffffffffffffffffffffffffffffffffffffff1602179055506000600181905550611897806100746000396000f3fe6080604052600436106100c25760003560e01c8063893d20e81161007f578063a134f36811610059578063a134f3681461025c578063abc7bdb314610287578063d9e1eedb146102a3578063f2fde38b146102e0576100c2565b8063893d20e8146101db5780638da5cb5b146102065780639748cd7914610231576100c2565b80630a7d20ee146100c75780633232ce69146100f25780633c3971a91461011b57806343739d021461015c5780635aaf6de2146101875780635e82d16b1461019e575b600080fd5b3480156100d357600080fd5b506100dc610309565b6040516100e99190610cbe565b60405180910390f35b3480156100fe57600080fd5b5061011960048036038101906101149190610d19565b61030f565b005b34801561012757600080fd5b50610142600480360381019061013d9190610da4565b6103a9565b604051610153959493929190610e8b565b60405180910390f35b34801561016857600080fd5b5061017161051c565b60405161017e9190610cbe565b60405180910390f35b34801561019357600080fd5b5061019c610522565b005b3480156101aa57600080fd5b506101c560048036038101906101c09190610da4565b61069a565b6040516101d29190610eec565b60405180910390f35b3480156101e757600080fd5b506101f061076d565b6040516101fd9190610f0e565b60405180910390f35b34801561021257600080fd5b5061021b610797565b6040516102289190610f4a565b60405180910390f35b34801561023d57600080fd5b506102466107bd565b6040516102539190610cbe565b60405180910390f35b34801561026857600080fd5b506102716107c7565b60405161027e9190610cbe565b60405180910390f35b6102a1600480360381019061029c919061109a565b6107d1565b005b3480156102af57600080fd5b506102ca60048036038101906102c59190610da4565b610a98565b6040516102d79190611125565b60405180910390f35b3480156102ec57600080fd5b506103076004803603810190610302919061116c565b610ae6565b005b60035481565b600260009054906101000a900473ffffffffffffffffffffffffffffffffffffffff1673ffffffffffffffffffffffffffffffffffffffff163373ffffffffffffffffffffffffffffffffffffffff161461039f576040517f08c379a00000000000000000000000000000000000000000000000000000000081526004016103969061120b565b60405180910390fd5b8060038190555050565b60006020528060005260406000206000915090508060000180546103cc9061125a565b80601f01602080910402602001604051908101604052809291908181526020018280546103f89061125a565b80156104455780601f1061041a57610100808354040283529160200191610445565b820191906000526020600020905b81548152906001019060200180831161042857829003601f168201915b5050505050908060010154908060020160009054906101000a900460ff16908060020160019054906101000a900473ffffffffffffffffffffffffffffffffffffffff16908060030180546104999061125a565b80601f01602080910402602001604051908101604052809291908181526020018280546104c59061125a565b80156105125780601f106104e757610100808354040283529160200191610512565b820191906000526020600020905b8154815290600101906020018083116104f557829003601f168201915b5050505050905085565b60015481565b6000803373ffffffffffffffffffffffffffffffffffffffff1673ffffffffffffffffffffffffffffffffffffffff16815260200190815260200160002060020160009054906101000a900460ff166105b0576040517f08c379a00000000000000000000000000000000000000000000000000000000081526004016105a7906112d7565b60405180910390fd5b60008060003373ffffffffffffffffffffffffffffffffffffffff1673ffffffffffffffffffffffffffffffffffffffff16815260200190815260200160002060020160006101000a81548160ff0219169083151502179055503373ffffffffffffffffffffffffffffffffffffffff167fb0af58c0aea3b3b82a29b590640b0b4333569756b9598cb409257a4cb6d235056000803373ffffffffffffffffffffffffffffffffffffffff1673ffffffffffffffffffffffffffffffffffffffff1681526020019081526020016000206000016040516106909190611390565b60405180910390a2565b60606000808373ffffffffffffffffffffffffffffffffffffffff1673ffffffffffffffffffffffffffffffffffffffff16815260200190815260200160002060030180546106e89061125a565b80601f01602080910402602001604051908101604052809291908181526020018280546107149061125a565b80156107615780601f1061073657610100808354040283529160200191610761565b820191906000526020600020905b81548152906001019060200180831161074457829003601f168201915b50505050509050919050565b6000600260009054906101000a900473ffffffffffffffffffffffffffffffffffffffff16905090565b600260009054906101000a900473ffffffffffffffffffffffffffffffffffffffff1681565b6000600154905090565b6000600354905090565b6003543414610815576040517f08c379a000000000000000000000000000000000000000000000000000000000815260040161080c906113fe565b60405180910390fd5b60008060003373ffffffffffffffffffffffffffffffffffffffff1673ffffffffffffffffffffffffffffffffffffffff1681526020019081526020016000206001015414610899576040517f08c379a000000000000000000000000000000000000000000000000000000000815260040161089090611490565b60405180910390fd5b60006040518060a001604052808581526020014281526020016001151581526020018473ffffffffffffffffffffffffffffffffffffffff168152602001838152509050806000803373ffffffffffffffffffffffffffffffffffffffff1673ffffffffffffffffffffffffffffffffffffffff16815260200190815260200160002060008201518160000190816109319190611647565b506020820151816001015560408201518160020160006101000a81548160ff02191690831515021790555060608201518160020160016101000a81548173ffffffffffffffffffffffffffffffffffffffff021916908373ffffffffffffffffffffffffffffffffffffffff16021790555060808201518160030190816109b89190611647565b5090505060018060008282546109ce9190611748565b92505081905550600260009054906101000a900473ffffffffffffffffffffffffffffffffffffffff1673ffffffffffffffffffffffffffffffffffffffff166108fc349081150290604051600060405180830381858888f19350505050158015610a3d573d6000803e3d6000fd5b503373ffffffffffffffffffffffffffffffffffffffff167f509aa7779cf4e373de5585d0ffdd7a7337be2f3ab55fce3a88100bc820ecb86f85428686604051610a8a949392919061177c565b60405180910390a250505050565b6000806000808473ffffffffffffffffffffffffffffffffffffffff1673ffffffffffffffffffffffffffffffffffffffff1681526020019081526020016000206001015414159050919050565b600260009054906101000a900473ffffffffffffffffffffffffffffffffffffffff1673ffffffffffffffffffffffffffffffffffffffff163373ffffffffffffffffffffffffffffffffffffffff1614610b76576040517f08c379a0000000000000000000000000000000000000000000000000000000008152600401610b6d9061120b565b60405180910390fd5b600073ffffffffffffffffffffffffffffffffffffffff168173ffffffffffffffffffffffffffffffffffffffff1603610be5576040517f08c379a0000000000000000000000000000000000000000000000000000000008152600401610bdc90611841565b60405180910390fd5b8073ffffffffffffffffffffffffffffffffffffffff16600260009054906101000a900473ffffffffffffffffffffffffffffffffffffffff1673ffffffffffffffffffffffffffffffffffffffff167f8be0079c531659141344cd1fd0a4f28419497f9722a3daafe3b4186f6b6457e060405160405180910390a380600260006101000a81548173ffffffffffffffffffffffffffffffffffffffff021916908373ffffffffffffffffffffffffffffffffffffffff16021790555050565b6000819050919050565b610cb881610ca5565b82525050565b6000602082019050610cd36000830184610caf565b92915050565b6000604051905090565b600080fd5b600080fd5b610cf681610ca5565b8114610d0157600080fd5b50565b600081359050610d1381610ced565b92915050565b600060208284031215610d2f57610d2e610ce3565b5b6000610d3d84828501610d04565b91505092915050565b600073ffffffffffffffffffffffffffffffffffffffff82169050919050565b6000610d7182610d46565b9050919050565b610d8181610d66565b8114610d8c57600080fd5b50565b600081359050610d9e81610d78565b92915050565b600060208284031215610dba57610db9610ce3565b5b6000610dc884828501610d8f565b91505092915050565b600081519050919050565b600082825260208201905092915050565b60005b83811015610e0b578082015181840152602081019050610df0565b60008484015250505050565b6000601f19601f8301169050919050565b6000610e3382610dd1565b610e3d8185610ddc565b9350610e4d818560208601610ded565b610e5681610e17565b840191505092915050565b60008115159050919050565b610e7681610e61565b82525050565b610e8581610d66565b82525050565b600060a0820190508181036000830152610ea58188610e28565b9050610eb46020830187610caf565b610ec16040830186610e6d565b610ece6060830185610e7c565b8181036080830152610ee08184610e28565b90509695505050505050565b60006020820190508181036000830152610f068184610e28565b905092915050565b6000602082019050610f236000830184610e7c565b92915050565b6000610f3482610d46565b9050919050565b610f4481610f29565b82525050565b6000602082019050610f5f6000830184610f3b565b92915050565b600080fd5b600080fd5b7f4e487b7100000000000000000000000000000000000000000000000000000000600052604160045260246000fd5b610fa782610e17565b810181811067ffffffffffffffff82111715610fc657610fc5610f6f565b5b80604052505050565b6000610fd9610cd9565b9050610fe58282610f9e565b919050565b600067ffffffffffffffff82111561100557611004610f6f565b5b61100e82610e17565b9050602081019050919050565b82818337600083830152505050565b600061103d61103884610fea565b610fcf565b90508281526020810184848401111561105957611058610f6a565b5b61106484828561101b565b509392505050565b600082601f83011261108157611080610f65565b5b813561109184826020860161102a565b91505092915050565b6000806000606084860312156110b3576110b2610ce3565b5b600084013567ffffffffffffffff8111156110d1576110d0610ce8565b5b6110dd8682870161106c565b93505060206110ee86828701610d8f565b925050604084013567ffffffffffffffff81111561110f5761110e610ce8565b5b61111b8682870161106c565b9150509250925092565b600060208201905061113a6000830184610e6d565b92915050565b61114981610f29565b811461115457600080fd5b50565b60008135905061116681611140565b92915050565b60006020828403121561118257611181610ce3565b5b600061119084828501611157565b91505092915050565b7f4f6e6c792074686520636f6e7472616374206f776e65722063616e207065726660008201527f6f726d207468697320616374696f6e0000000000000000000000000000000000602082015250565b60006111f5602f83610ddc565b915061120082611199565b604082019050919050565b60006020820190508181036000830152611224816111e8565b9050919050565b7f4e487b7100000000000000000000000000000000000000000000000000000000600052602260045260246000fd5b6000600282049050600182168061127257607f821691505b6020821081036112855761128461122b565b5b50919050565b7f426c69747a206e6f7420616374697665206f72206e6f6e2d6578697374656e74600082015250565b60006112c1602083610ddc565b91506112cc8261128b565b602082019050919050565b600060208201905081810360008301526112f0816112b4565b9050919050565b60008190508160005260206000209050919050565b600081546113198161125a565b6113238186610ddc565b9450600182166000811461133e576001811461135457611387565b60ff198316865281151560200286019350611387565b61135d856112f7565b60005b8381101561137f57815481890152600182019150602081019050611360565b808801955050505b50505092915050565b600060208201905081810360008301526113aa818461130c565b905092915050565b7f496e636f7272656374206665652073656e740000000000000000000000000000600082015250565b60006113e8601283610ddc565b91506113f3826113b2565b602082019050919050565b60006020820190508181036000830152611417816113db565b9050919050565b7f4561636820616464726573732063616e20637265617465206f6e6c79206f6e6560008201527f20426c69747a0000000000000000000000000000000000000000000000000000602082015250565b600061147a602683610ddc565b91506114858261141e565b604082019050919050565b600060208201905081810360008301526114a98161146d565b9050919050565b60006020601f8301049050919050565b600082821b905092915050565b6000600883026114fd7fffffffffffffffffffffffffffffffffffffffffffffffffffffffffffffffff826114c0565b61150786836114c0565b95508019841693508086168417925050509392505050565b6000819050919050565b600061154461153f61153a84610ca5565b61151f565b610ca5565b9050919050565b6000819050919050565b61155e83611529565b61157261156a8261154b565b8484546114cd565b825550505050565b600090565b61158761157a565b611592818484611555565b505050565b5b818110156115b6576115ab60008261157f565b600181019050611598565b5050565b601f8211156115fb576115cc816112f7565b6115d5846114b0565b810160208510156115e4578190505b6115f86115f0856114b0565b830182611597565b50505b505050565b600082821c905092915050565b600061161e60001984600802611600565b1980831691505092915050565b6000611637838361160d565b9150826002028217905092915050565b61165082610dd1565b67ffffffffffffffff81111561166957611668610f6f565b5b611673825461125a565b61167e8282856115ba565b600060209050601f8311600181146116b1576000841561169f578287015190505b6116a9858261162b565b865550611711565b601f1984166116bf866112f7565b60005b828110156116e7578489015182556001820191506020850194506020810190506116c2565b868310156117045784890151611700601f89168261160d565b8355505b6001600288020188555050505b505050505050565b7f4e487b7100000000000000000000000000000000000000000000000000000000600052601160045260246000fd5b600061175382610ca5565b915061175e83610ca5565b925082820190508082111561177657611775611719565b5b92915050565b600060808201905081810360008301526117968187610e28565b90506117a56020830186610caf565b6117b26040830185610e7c565b81810360608301526117c48184610e28565b905095945050505050565b7f4e6577206f776e65722063616e6e6f7420626520746865207a65726f2061646460008201527f7265737300000000000000000000000000000000000000000000000000000000602082015250565b600061182b602483610ddc565b9150611836826117cf565b604082019050919050565b6000602082019050818103600083015261185a8161181e565b905091905056fea264697066735822122041e700310c3dcc954d8e796f355d55bc6cf4c7c2e4bf14ad26b543a792fb7e8064736f6c63430008180033",
  "linkReferences": {},
  "deployedLinkReferences": {}
}