{
  "_format": "hh-sol-artifact-1",
  "contractName": "BlitzProtocol",
  "sourceName": "contracts/BlitzProtocol.sol",
  "abi": [
    {
      "inputs": [],
      "stateMutability": "nonpayable",
      "type": "constructor"
    },
    {
      "anonymous": false,
      "inputs": [
        {
          "indexed": false,
          "internalType": "uint256",
          "name": "id",
          "type": "uint256"
        },
        {
          "indexed": false,
          "internalType": "string",
          "name": "name",
          "type": "string"
        },
        {
          "indexed": true,
          "internalType": "address",
          "name": "creator",
          "type": "address"
        },
        {
          "indexed": false,
          "internalType": "uint256",
          "name": "timestamp",
          "type": "uint256"
        }
      ],
      "name": "BlitzCreated",
      "type": "event"
    },
    {
      "anonymous": false,
      "inputs": [
        {
          "indexed": false,
          "internalType": "uint256",
          "name": "id",
          "type": "uint256"
        },
        {
          "indexed": false,
          "internalType": "string",
          "name": "name",
          "type": "string"
        },
        {
          "indexed": true,
          "internalType": "address",
          "name": "deactivator",
          "type": "address"
        }
      ],
      "name": "BlitzDeactivated",
      "type": "event"
    },
    {
      "inputs": [
        {
          "internalType": "string",
          "name": "name",
          "type": "string"
        }
      ],
      "name": "createBlitz",
      "outputs": [
        {
          "internalType": "uint256",
          "name": "",
          "type": "uint256"
        }
      ],
      "stateMutability": "nonpayable",
      "type": "function"
    },
    {
      "inputs": [
        {
          "internalType": "uint256",
          "name": "id",
          "type": "uint256"
        }
      ],
      "name": "deactivateBlitz",
      "outputs": [],
      "stateMutability": "nonpayable",
      "type": "function"
    },
    {
      "inputs": [
        {
          "internalType": "uint256",
          "name": "id",
          "type": "uint256"
        }
      ],
      "name": "getBlitz",
      "outputs": [
        {
          "internalType": "string",
          "name": "name",
          "type": "string"
        },
        {
          "internalType": "address",
          "name": "creator",
          "type": "address"
        },
        {
          "internalType": "uint256",
          "name": "timestamp",
          "type": "uint256"
        },
        {
          "internalType": "bool",
          "name": "isActive",
          "type": "bool"
        }
      ],
      "stateMutability": "view",
      "type": "function"
    },
    {
      "inputs": [],
      "name": "getBlitzCount",
      "outputs": [
        {
          "internalType": "uint256",
          "name": "",
          "type": "uint256"
        }
      ],
      "stateMutability": "view",
      "type": "function"
    },
    {
      "inputs": [],
      "name": "owner",
      "outputs": [
        {
          "internalType": "address",
          "name": "",
          "type": "address"
        }
      ],
      "stateMutability": "view",
      "type": "function"
    },
    {
      "inputs": [
        {
          "internalType": "address",
          "name": "newOwner",
          "type": "address"
        }
      ],
      "name": "transferOwnership",
      "outputs": [],
      "stateMutability": "nonpayable",
      "type": "function"
    }
  ],
  "bytecode": "0x608060405234801561001057600080fd5b5033600260006101000a81548173ffffffffffffffffffffffffffffffffffffffff021916908373ffffffffffffffffffffffffffffffffffffffff16021790555060006001819055506110c9806100696000396000f3fe608060405234801561001057600080fd5b50600436106100625760003560e01c80636e2a1211146100675780638da5cb5b14610097578063b7dde004146100b5578063d1e9ba2a146100e8578063f2fde38b14610106578063f877f03614610122575b600080fd5b610081600480360381019061007c919061085f565b61013e565b60405161008e91906108c1565b60405180910390f35b61009f6102a7565b6040516100ac919061091d565b60405180910390f35b6100cf60048036038101906100ca9190610964565b6102cd565b6040516100df9493929190610a2b565b60405180910390f35b6100f061042f565b6040516100fd91906108c1565b60405180910390f35b610120600480360381019061011b9190610aa3565b610439565b005b61013c60048036038101906101379190610964565b61057c565b005b600060018060008282546101529190610aff565b9250508190555060006040518060a001604052808481526020013373ffffffffffffffffffffffffffffffffffffffff168152602001428152602001600154815260200160011515815250905080600080600154815260200190815260200160002060008201518160000190816101c99190610d3f565b5060208201518160010160006101000a81548173ffffffffffffffffffffffffffffffffffffffff021916908373ffffffffffffffffffffffffffffffffffffffff160217905550604082015181600201556060820151816003015560808201518160040160006101000a81548160ff0219169083151502179055509050503373ffffffffffffffffffffffffffffffffffffffff167f2bdfe4778f1731b10553970e139db5d5d64eef38e3220208767a3d81dc1b75e1600154854260405161029493929190610e11565b60405180910390a2600154915050919050565b600260009054906101000a900473ffffffffffffffffffffffffffffffffffffffff1681565b60606000806000806000808781526020019081526020016000206040518060a001604052908160008201805461030290610b62565b80601f016020809104026020016040519081016040528092919081815260200182805461032e90610b62565b801561037b5780601f106103505761010080835404028352916020019161037b565b820191906000526020600020905b81548152906001019060200180831161035e57829003601f168201915b505050505081526020016001820160009054906101000a900473ffffffffffffffffffffffffffffffffffffffff1673ffffffffffffffffffffffffffffffffffffffff1673ffffffffffffffffffffffffffffffffffffffff16815260200160028201548152602001600382015481526020016004820160009054906101000a900460ff161515151581525050905080600001518160200151826040015183608001519450945094509450509193509193565b6000600154905090565b600260009054906101000a900473ffffffffffffffffffffffffffffffffffffffff1673ffffffffffffffffffffffffffffffffffffffff163373ffffffffffffffffffffffffffffffffffffffff16146104c9576040517f08c379a00000000000000000000000000000000000000000000000000000000081526004016104c090610ec1565b60405180910390fd5b600073ffffffffffffffffffffffffffffffffffffffff168173ffffffffffffffffffffffffffffffffffffffff1603610538576040517f08c379a000000000000000000000000000000000000000000000000000000000815260040161052f90610f53565b60405180910390fd5b80600260006101000a81548173ffffffffffffffffffffffffffffffffffffffff021916908373ffffffffffffffffffffffffffffffffffffffff16021790555050565b600260009054906101000a900473ffffffffffffffffffffffffffffffffffffffff1673ffffffffffffffffffffffffffffffffffffffff163373ffffffffffffffffffffffffffffffffffffffff161461060c576040517f08c379a000000000000000000000000000000000000000000000000000000000815260040161060390610ec1565b60405180910390fd5b8060008082815260200190815260200160002060040160009054906101000a900460ff1661066f576040517f08c379a000000000000000000000000000000000000000000000000000000000815260040161066690610fbf565b60405180910390fd5b600080600084815260200190815260200160002060040160006101000a81548160ff0219169083151502179055503373ffffffffffffffffffffffffffffffffffffffff167f0c1f9bb89027086df3669258b8c2d08485467007c0822e51a89a7fce2a4f9b10836000808681526020019081526020016000206000016040516106f9929190611063565b60405180910390a25050565b6000604051905090565b600080fd5b600080fd5b600080fd5b600080fd5b6000601f19601f8301169050919050565b7f4e487b7100000000000000000000000000000000000000000000000000000000600052604160045260246000fd5b61076c82610723565b810181811067ffffffffffffffff8211171561078b5761078a610734565b5b80604052505050565b600061079e610705565b90506107aa8282610763565b919050565b600067ffffffffffffffff8211156107ca576107c9610734565b5b6107d382610723565b9050602081019050919050565b82818337600083830152505050565b60006108026107fd846107af565b610794565b90508281526020810184848401111561081e5761081d61071e565b5b6108298482856107e0565b509392505050565b600082601f83011261084657610845610719565b5b81356108568482602086016107ef565b91505092915050565b6000602082840312156108755761087461070f565b5b600082013567ffffffffffffffff81111561089357610892610714565b5b61089f84828501610831565b91505092915050565b6000819050919050565b6108bb816108a8565b82525050565b60006020820190506108d660008301846108b2565b92915050565b600073ffffffffffffffffffffffffffffffffffffffff82169050919050565b6000610907826108dc565b9050919050565b610917816108fc565b82525050565b6000602082019050610932600083018461090e565b92915050565b610941816108a8565b811461094c57600080fd5b50565b60008135905061095e81610938565b92915050565b60006020828403121561097a5761097961070f565b5b60006109888482850161094f565b91505092915050565b600081519050919050565b600082825260208201905092915050565b60005b838110156109cb5780820151818401526020810190506109b0565b60008484015250505050565b60006109e282610991565b6109ec818561099c565b93506109fc8185602086016109ad565b610a0581610723565b840191505092915050565b60008115159050919050565b610a2581610a10565b82525050565b60006080820190508181036000830152610a4581876109d7565b9050610a54602083018661090e565b610a6160408301856108b2565b610a6e6060830184610a1c565b95945050505050565b610a80816108fc565b8114610a8b57600080fd5b50565b600081359050610a9d81610a77565b92915050565b600060208284031215610ab957610ab861070f565b5b6000610ac784828501610a8e565b91505092915050565b7f4e487b7100000000000000000000000000000000000000000000000000000000600052601160045260246000fd5b6000610b0a826108a8565b9150610b15836108a8565b9250828201905080821115610b2d57610b2c610ad0565b5b92915050565b7f4e487b7100000000000000000000000000000000000000000000000000000000600052602260045260246000fd5b60006002820490506001821680610b7a57607f821691505b602082108103610b8d57610b8c610b33565b5b50919050565b60008190508160005260206000209050919050565b60006020601f8301049050919050565b600082821b905092915050565b600060088302610bf57fffffffffffffffffffffffffffffffffffffffffffffffffffffffffffffffff82610bb8565b610bff8683610bb8565b95508019841693508086168417925050509392505050565b6000819050919050565b6000610c3c610c37610c32846108a8565b610c17565b6108a8565b9050919050565b6000819050919050565b610c5683610c21565b610c6a610c6282610c43565b848454610bc5565b825550505050565b600090565b610c7f610c72565b610c8a818484610c4d565b505050565b5b81811015610cae57610ca3600082610c77565b600181019050610c90565b5050565b601f821115610cf357610cc481610b93565b610ccd84610ba8565b81016020851015610cdc578190505b610cf0610ce885610ba8565b830182610c8f565b50505b505050565b600082821c905092915050565b6000610d1660001984600802610cf8565b1980831691505092915050565b6000610d2f8383610d05565b9150826002028217905092915050565b610d4882610991565b67ffffffffffffffff811115610d6157610d60610734565b5b610d6b8254610b62565b610d76828285610cb2565b600060209050601f831160018114610da95760008415610d97578287015190505b610da18582610d23565b865550610e09565b601f198416610db786610b93565b60005b82811015610ddf57848901518255600182019150602085019450602081019050610dba565b86831015610dfc5784890151610df8601f891682610d05565b8355505b6001600288020188555050505b505050505050565b6000606082019050610e2660008301866108b2565b8181036020830152610e3881856109d7565b9050610e4760408301846108b2565b949350505050565b7f4f6e6c792074686520636f6e7472616374206f776e65722063616e207065726660008201527f6f726d207468697320616374696f6e0000000000000000000000000000000000602082015250565b6000610eab602f8361099c565b9150610eb682610e4f565b604082019050919050565b60006020820190508181036000830152610eda81610e9e565b9050919050565b7f4e6577206f776e65722063616e6e6f7420626520746865207a65726f2061646460008201527f7265737300000000000000000000000000000000000000000000000000000000602082015250565b6000610f3d60248361099c565b9150610f4882610ee1565b604082019050919050565b60006020820190508181036000830152610f6c81610f30565b9050919050565b7f5468697320426c69747a206973206e6f74206163746976650000000000000000600082015250565b6000610fa960188361099c565b9150610fb482610f73565b602082019050919050565b60006020820190508181036000830152610fd881610f9c565b9050919050565b60008154610fec81610b62565b610ff6818661099c565b9450600182166000811461101157600181146110275761105a565b60ff19831686528115156020028601935061105a565b61103085610b93565b60005b8381101561105257815481890152600182019150602081019050611033565b808801955050505b50505092915050565b600060408201905061107860008301856108b2565b818103602083015261108a8184610fdf565b9050939250505056fea26469706673582212204ae6355cdb72a52e0c0847cbca2c44d81d79e874db7760eedec7aea17ef7c26564736f6c63430008180033",
  "linkReferences": {},
  "deployedLinkReferences": {}
}